{
  "contractName": "MadEscrow",
  "abi": [
    {
      "anonymous": false,
      "inputs": [
        {
          "indexed": false,
          "internalType": "bool",
          "name": "authenticityCheck",
          "type": "bool"
        },
        {
          "indexed": false,
          "internalType": "uint256",
          "name": "id",
          "type": "uint256"
        }
      ],
      "name": "AuthenticityCheckCompletedEvent",
      "type": "event"
    },
    {
      "anonymous": false,
      "inputs": [
        {
          "indexed": true,
          "internalType": "address",
          "name": "payee",
          "type": "address"
        },
        {
          "indexed": false,
          "internalType": "uint256",
          "name": "weiAmount",
          "type": "uint256"
        }
      ],
      "name": "Deposited",
      "type": "event"
    },
    {
      "anonymous": false,
      "inputs": [
        {
          "indexed": false,
          "internalType": "bool",
          "name": "completed",
          "type": "bool"
        },
        {
          "indexed": false,
          "internalType": "uint256",
          "name": "buyerReceives",
          "type": "uint256"
        },
        {
          "indexed": false,
          "internalType": "uint256",
          "name": "sellerReceives",
          "type": "uint256"
        }
      ],
      "name": "EscrowComplete",
      "type": "event"
    },
    {
      "anonymous": false,
      "inputs": [
        {
          "indexed": false,
          "internalType": "address",
          "name": "sender",
          "type": "address"
        },
        {
          "indexed": false,
          "internalType": "uint256",
          "name": "amount",
          "type": "uint256"
        }
      ],
      "name": "FundsReceived",
      "type": "event"
    },
    {
      "anonymous": false,
      "inputs": [
        {
          "indexed": false,
          "internalType": "address",
          "name": "initiator",
          "type": "address"
        },
        {
          "indexed": false,
          "internalType": "address",
          "name": "buyer",
          "type": "address"
        },
        {
          "indexed": false,
          "internalType": "address",
          "name": "seller",
          "type": "address"
        },
        {
          "indexed": false,
          "internalType": "uint256",
          "name": "tradeFundsforXfer",
          "type": "uint256"
        }
      ],
      "name": "Initiated",
      "type": "event"
    },
    {
      "anonymous": false,
      "inputs": [
        {
          "indexed": true,
          "internalType": "address",
          "name": "previousOwner",
          "type": "address"
        },
        {
          "indexed": true,
          "internalType": "address",
          "name": "newOwner",
          "type": "address"
        }
      ],
      "name": "OwnershipTransferred",
      "type": "event"
    },
    {
      "anonymous": false,
      "inputs": [
        {
          "indexed": false,
          "internalType": "address",
          "name": "party",
          "type": "address"
        }
      ],
      "name": "PartyFinalized",
      "type": "event"
    },
    {
      "anonymous": false,
      "inputs": [
        {
          "indexed": false,
          "internalType": "uint256",
          "name": "id",
          "type": "uint256"
        }
      ],
      "name": "ReceivedNewRequestIdEvent",
      "type": "event"
    },
    {
      "anonymous": false,
      "inputs": [
        {
          "indexed": false,
          "internalType": "uint256",
          "name": "purchaseAmount",
          "type": "uint256"
        },
        {
          "indexed": false,
          "internalType": "uint256",
          "name": "totalEscrowAmount",
          "type": "uint256"
        },
        {
          "indexed": false,
          "internalType": "uint256",
          "name": "BuyerRequiredFunding",
          "type": "uint256"
        },
        {
          "indexed": false,
          "internalType": "uint256",
          "name": "SellerRequiredFunding",
          "type": "uint256"
        }
      ],
      "name": "Terms",
      "type": "event"
    },
    {
      "anonymous": false,
      "inputs": [
        {
          "indexed": true,
          "internalType": "address",
          "name": "payee",
          "type": "address"
        },
        {
          "indexed": false,
          "internalType": "uint256",
          "name": "weiAmount",
          "type": "uint256"
        }
      ],
      "name": "Withdrawn",
      "type": "event"
    },
    {
      "anonymous": false,
      "inputs": [
        {
          "indexed": false,
          "internalType": "address",
          "name": "oracleAddress",
          "type": "address"
        }
      ],
      "name": "newOracleAddressEvent",
      "type": "event"
    },
    {
      "inputs": [],
      "name": "buyer",
      "outputs": [
        {
          "internalType": "address",
          "name": "",
          "type": "address"
        }
      ],
      "stateMutability": "view",
      "type": "function"
    },
    {
      "inputs": [],
      "name": "buyerEscrowedFunds",
      "outputs": [
        {
          "internalType": "uint256",
          "name": "",
          "type": "uint256"
        }
      ],
      "stateMutability": "view",
      "type": "function"
    },
    {
      "inputs": [],
      "name": "buyerHasFunded",
      "outputs": [
        {
          "internalType": "bool",
          "name": "",
          "type": "bool"
        }
      ],
      "stateMutability": "view",
      "type": "function"
    },
    {
      "inputs": [],
      "name": "buyerRequiredEscrow",
      "outputs": [
        {
          "internalType": "uint256",
          "name": "",
          "type": "uint256"
        }
      ],
      "stateMutability": "view",
      "type": "function"
    },
    {
      "inputs": [],
      "name": "buyerfinalized",
      "outputs": [
        {
          "internalType": "bool",
          "name": "",
          "type": "bool"
        }
      ],
      "stateMutability": "view",
      "type": "function"
    },
    {
      "inputs": [
        {
          "internalType": "address",
          "name": "payee",
          "type": "address"
        }
      ],
      "name": "deposit",
      "outputs": [],
      "stateMutability": "payable",
      "type": "function"
    },
    {
      "inputs": [
        {
          "internalType": "address",
          "name": "payee",
          "type": "address"
        }
      ],
      "name": "depositsOf",
      "outputs": [
        {
          "internalType": "uint256",
          "name": "",
          "type": "uint256"
        }
      ],
      "stateMutability": "view",
      "type": "function"
    },
    {
      "inputs": [],
      "name": "escrowFullyFunded",
      "outputs": [
        {
          "internalType": "bool",
          "name": "",
          "type": "bool"
        }
      ],
      "stateMutability": "view",
      "type": "function"
    },
    {
      "inputs": [],
      "name": "name",
      "outputs": [
        {
          "internalType": "string",
          "name": "",
          "type": "string"
        }
      ],
      "stateMutability": "view",
      "type": "function"
    },
    {
      "inputs": [],
      "name": "owner",
      "outputs": [
        {
          "internalType": "address",
          "name": "",
          "type": "address"
        }
      ],
      "stateMutability": "view",
      "type": "function"
    },
    {
      "inputs": [],
      "name": "purchaseAmount",
      "outputs": [
        {
          "internalType": "uint256",
          "name": "",
          "type": "uint256"
        }
      ],
      "stateMutability": "view",
      "type": "function"
    },
    {
      "inputs": [],
      "name": "renounceOwnership",
      "outputs": [],
      "stateMutability": "nonpayable",
      "type": "function"
    },
    {
      "inputs": [],
      "name": "seller",
      "outputs": [
        {
          "internalType": "address",
          "name": "",
          "type": "address"
        }
      ],
      "stateMutability": "view",
      "type": "function"
    },
    {
      "inputs": [],
      "name": "sellerEscrowedFunds",
      "outputs": [
        {
          "internalType": "uint256",
          "name": "",
          "type": "uint256"
        }
      ],
      "stateMutability": "view",
      "type": "function"
    },
    {
      "inputs": [],
      "name": "sellerHasFunded",
      "outputs": [
        {
          "internalType": "bool",
          "name": "",
          "type": "bool"
        }
      ],
      "stateMutability": "view",
      "type": "function"
    },
    {
      "inputs": [],
      "name": "sellerRequiredEscrow",
      "outputs": [
        {
          "internalType": "uint256",
          "name": "",
          "type": "uint256"
        }
      ],
      "stateMutability": "view",
      "type": "function"
    },
    {
      "inputs": [],
      "name": "sellerfinalized",
      "outputs": [
        {
          "internalType": "bool",
          "name": "",
          "type": "bool"
        }
      ],
      "stateMutability": "view",
      "type": "function"
    },
    {
      "inputs": [],
      "name": "totalEscrowAmount",
      "outputs": [
        {
          "internalType": "uint256",
          "name": "",
          "type": "uint256"
        }
      ],
      "stateMutability": "view",
      "type": "function"
    },
    {
      "inputs": [
        {
          "internalType": "address",
          "name": "newOwner",
          "type": "address"
        }
      ],
      "name": "transferOwnership",
      "outputs": [],
      "stateMutability": "nonpayable",
      "type": "function"
    },
    {
      "inputs": [
        {
          "internalType": "address payable",
          "name": "payee",
          "type": "address"
        }
      ],
      "name": "withdraw",
      "outputs": [],
      "stateMutability": "nonpayable",
      "type": "function"
    },
    {
      "inputs": [
        {
          "internalType": "address",
          "name": "_oracleAddress",
          "type": "address"
        }
      ],
      "name": "setOracleAddress",
      "outputs": [],
      "stateMutability": "nonpayable",
      "type": "function"
    },
    {
      "inputs": [
        {
          "internalType": "address",
          "name": "_oracleInstanceAddress",
          "type": "address"
        }
      ],
      "name": "setOracleInstanceAddress",
      "outputs": [],
      "stateMutability": "nonpayable",
      "type": "function"
    },
    {
      "inputs": [],
      "name": "updateAuthenticityCheck",
      "outputs": [],
      "stateMutability": "nonpayable",
      "type": "function"
    },
    {
      "inputs": [
        {
          "internalType": "bool",
          "name": "_authenticityCheck",
          "type": "bool"
        },
        {
          "internalType": "uint256",
          "name": "_id",
          "type": "uint256"
        }
      ],
      "name": "callback",
      "outputs": [],
      "stateMutability": "nonpayable",
      "type": "function"
    }
  ],
  "bytecode": "0x60806040526040518060400160405280601c81526020017f536f6c6964697479204d414420657363726f7720636f6e7472616374000000008152506002908051906020019062000051929190620001c3565b50600060085560006009556000600a556000600b556000600c556000600d556000600e60006101000a81548160ff0219169083151502179055506000600e60016101000a81548160ff0219169083151502179055506000600e60026101000a81548160ff0219169083151502179055506000600e60036101000a81548160ff0219169083151502179055506000600e60046101000a81548160ff0219169083151502179055503480156200010457600080fd5b50600062000117620001bb60201b60201c565b9050806000806101000a81548173ffffffffffffffffffffffffffffffffffffffff021916908373ffffffffffffffffffffffffffffffffffffffff1602179055508073ffffffffffffffffffffffffffffffffffffffff16600073ffffffffffffffffffffffffffffffffffffffff167f8be0079c531659141344cd1fd0a4f28419497f9722a3daafe3b4186f6b6457e060405160405180910390a35062000272565b600033905090565b828054600181600116156101000203166002900490600052602060002090601f016020900481019282601f106200020657805160ff191683800117855562000237565b8280016001018555821562000237579182015b828111156200023657825182559160200191906001019062000219565b5b5090506200024691906200024a565b5090565b6200026f91905b808211156200026b57600081600090555060010162000251565b5090565b90565b61188580620002826000396000f3fe60806040526004361061014b5760003560e01c80638da5cb5b116100b6578063e9e17a9e1161006f578063e9e17a9e146105c5578063ee05189114610616578063f2a7d51b14610641578063f2fde38b14610670578063f340fa01146106c1578063f6673296146107055761014b565b80638da5cb5b14610441578063a8fc144e14610498578063ae916397146104c3578063af8f0f2d146104ee578063c341853f14610535578063e3a9db1a146105605761014b565b80636b03fb00116101085780636b03fb0014610333578063715018a6146103625780637150d8ae14610379578063819d1a3e146103d0578063870a6474146103fb5780638d531682146104125761014b565b806306fdde031461015057806308551a53146101e05780631125f37b146102375780634c69c00f146102665780634f5f0dec146102b757806351cff8d9146102e2575b600080fd5b34801561015c57600080fd5b50610165610734565b6040518080602001828103825283818151815260200191508051906020019080838360005b838110156101a557808201518184015260208101905061018a565b50505050905090810190601f1680156101d25780820380516001836020036101000a031916815260200191505b509250505060405180910390f35b3480156101ec57600080fd5b506101f56107d2565b604051808273ffffffffffffffffffffffffffffffffffffffff1673ffffffffffffffffffffffffffffffffffffffff16815260200191505060405180910390f35b34801561024357600080fd5b5061024c6107f8565b604051808215151515815260200191505060405180910390f35b34801561027257600080fd5b506102b56004803603602081101561028957600080fd5b81019080803573ffffffffffffffffffffffffffffffffffffffff16906020019092919050505061080b565b005b3480156102c357600080fd5b506102cc610918565b6040518082815260200191505060405180910390f35b3480156102ee57600080fd5b506103316004803603602081101561030557600080fd5b81019080803573ffffffffffffffffffffffffffffffffffffffff16906020019092919050505061091e565b005b34801561033f57600080fd5b50610348610aeb565b604051808215151515815260200191505060405180910390f35b34801561036e57600080fd5b50610377610afe565b005b34801561038557600080fd5b5061038e610c86565b604051808273ffffffffffffffffffffffffffffffffffffffff1673ffffffffffffffffffffffffffffffffffffffff16815260200191505060405180910390f35b3480156103dc57600080fd5b506103e5610cac565b6040518082815260200191505060405180910390f35b34801561040757600080fd5b50610410610cb2565b005b34801561041e57600080fd5b50610427610dc1565b604051808215151515815260200191505060405180910390f35b34801561044d57600080fd5b50610456610dd4565b604051808273ffffffffffffffffffffffffffffffffffffffff1673ffffffffffffffffffffffffffffffffffffffff16815260200191505060405180910390f35b3480156104a457600080fd5b506104ad610dfd565b6040518082815260200191505060405180910390f35b3480156104cf57600080fd5b506104d8610e03565b6040518082815260200191505060405180910390f35b3480156104fa57600080fd5b506105336004803603604081101561051157600080fd5b8101908080351515906020019092919080359060200190929190505050610e09565b005b34801561054157600080fd5b5061054a610fc6565b6040518082815260200191505060405180910390f35b34801561056c57600080fd5b506105af6004803603602081101561058357600080fd5b81019080803573ffffffffffffffffffffffffffffffffffffffff169060200190929190505050610fcc565b6040518082815260200191505060405180910390f35b3480156105d157600080fd5b50610614600480360360208110156105e857600080fd5b81019080803573ffffffffffffffffffffffffffffffffffffffff169060200190929190505050611015565b005b34801561062257600080fd5b5061062b61120a565b6040518082815260200191505060405180910390f35b34801561064d57600080fd5b50610656611210565b604051808215151515815260200191505060405180910390f35b34801561067c57600080fd5b506106bf6004803603602081101561069357600080fd5b81019080803573ffffffffffffffffffffffffffffffffffffffff169060200190929190505050611223565b005b610703600480360360208110156106d757600080fd5b81019080803573ffffffffffffffffffffffffffffffffffffffff169060200190929190505050611430565b005b34801561071157600080fd5b5061071a6115e5565b604051808215151515815260200191505060405180910390f35b60028054600181600116156101000203166002900480601f0160208091040260200160405190810160405280929190818152602001828054600181600116156101000203166002900480156107ca5780601f1061079f576101008083540402835291602001916107ca565b820191906000526020600020905b8154815290600101906020018083116107ad57829003601f168201915b505050505081565b600760009054906101000a900473ffffffffffffffffffffffffffffffffffffffff1681565b600e60049054906101000a900460ff1681565b6108136115f8565b73ffffffffffffffffffffffffffffffffffffffff166000809054906101000a900473ffffffffffffffffffffffffffffffffffffffff1673ffffffffffffffffffffffffffffffffffffffff16146108d4576040517f08c379a00000000000000000000000000000000000000000000000000000000081526004018080602001828103825260208152602001807f4f776e61626c653a2063616c6c6572206973206e6f7420746865206f776e657281525060200191505060405180910390fd5b80600460006101000a81548173ffffffffffffffffffffffffffffffffffffffff021916908373ffffffffffffffffffffffffffffffffffffffff16021790555050565b60095481565b6109266115f8565b73ffffffffffffffffffffffffffffffffffffffff166000809054906101000a900473ffffffffffffffffffffffffffffffffffffffff1673ffffffffffffffffffffffffffffffffffffffff16146109e7576040517f08c379a00000000000000000000000000000000000000000000000000000000081526004018080602001828103825260208152602001807f4f776e61626c653a2063616c6c6572206973206e6f7420746865206f776e657281525060200191505060405180910390fd5b6000600160008373ffffffffffffffffffffffffffffffffffffffff1673ffffffffffffffffffffffffffffffffffffffff1681526020019081526020016000205490506000600160008473ffffffffffffffffffffffffffffffffffffffff1673ffffffffffffffffffffffffffffffffffffffff16815260200190815260200160002081905550610a99818373ffffffffffffffffffffffffffffffffffffffff1661160090919063ffffffff16565b8173ffffffffffffffffffffffffffffffffffffffff167f7084f5476618d8e60b11ef0d7d3f06914655adb8793e28ff7f018d4c76d505d5826040518082815260200191505060405180910390a25050565b600e60039054906101000a900460ff1681565b610b066115f8565b73ffffffffffffffffffffffffffffffffffffffff166000809054906101000a900473ffffffffffffffffffffffffffffffffffffffff1673ffffffffffffffffffffffffffffffffffffffff1614610bc7576040517f08c379a00000000000000000000000000000000000000000000000000000000081526004018080602001828103825260208152602001807f4f776e61626c653a2063616c6c6572206973206e6f7420746865206f776e657281525060200191505060405180910390fd5b600073ffffffffffffffffffffffffffffffffffffffff166000809054906101000a900473ffffffffffffffffffffffffffffffffffffffff1673ffffffffffffffffffffffffffffffffffffffff167f8be0079c531659141344cd1fd0a4f28419497f9722a3daafe3b4186f6b6457e060405160405180910390a360008060006101000a81548173ffffffffffffffffffffffffffffffffffffffff021916908373ffffffffffffffffffffffffffffffffffffffff160217905550565b600660009054906101000a900473ffffffffffffffffffffffffffffffffffffffff1681565b600d5481565b6000600360009054906101000a900473ffffffffffffffffffffffffffffffffffffffff1673ffffffffffffffffffffffffffffffffffffffff1663bae91c1d6040518163ffffffff1660e01b8152600401602060405180830381600087803b158015610d1e57600080fd5b505af1158015610d32573d6000803e3d6000fd5b505050506040513d6020811015610d4857600080fd5b8101908080519060200190929190505050905060016005600083815260200190815260200160002060006101000a81548160ff0219169083151502179055507f3ed150819af981e387450beb90ec379b8b322150dbb299d492b108c59a623e4b816040518082815260200191505060405180910390a150565b600e60029054906101000a900460ff1681565b60008060009054906101000a900473ffffffffffffffffffffffffffffffffffffffff16905090565b600c5481565b600b5481565b600460009054906101000a900473ffffffffffffffffffffffffffffffffffffffff1673ffffffffffffffffffffffffffffffffffffffff163373ffffffffffffffffffffffffffffffffffffffff1614610eaf576040517f08c379a000000000000000000000000000000000000000000000000000000000815260040180806020018281038252602d815260200180611823602d913960400191505060405180910390fd5b6005600082815260200190815260200160002060009054906101000a900460ff16610f42576040517f08c379a000000000000000000000000000000000000000000000000000000000815260040180806020018281038252601c8152602001807f52657175657374206e6f7420696e2070656e64696e67206c6973742e0000000081525060200191505060405180910390fd5b81600460146101000a81548160ff0219169083151502179055506005600082815260200190815260200160002060006101000a81549060ff02191690557f9e4bffca85c45a0a9b345f0fb6ca2820b0e8997e8eb1ad5763212231b6454289828260405180831515151581526020018281526020019250505060405180910390a15050565b60085481565b6000600160008373ffffffffffffffffffffffffffffffffffffffff1673ffffffffffffffffffffffffffffffffffffffff168152602001908152602001600020549050919050565b61101d6115f8565b73ffffffffffffffffffffffffffffffffffffffff166000809054906101000a900473ffffffffffffffffffffffffffffffffffffffff1673ffffffffffffffffffffffffffffffffffffffff16146110de576040517f08c379a00000000000000000000000000000000000000000000000000000000081526004018080602001828103825260208152602001807f4f776e61626c653a2063616c6c6572206973206e6f7420746865206f776e657281525060200191505060405180910390fd5b80600460006101000a81548173ffffffffffffffffffffffffffffffffffffffff021916908373ffffffffffffffffffffffffffffffffffffffff160217905550600460009054906101000a900473ffffffffffffffffffffffffffffffffffffffff16600360006101000a81548173ffffffffffffffffffffffffffffffffffffffff021916908373ffffffffffffffffffffffffffffffffffffffff1602179055507f441e3b056b114797955165bd03bb8393fc1658a713f09225de4745a8d068bf7d600460009054906101000a900473ffffffffffffffffffffffffffffffffffffffff16604051808273ffffffffffffffffffffffffffffffffffffffff1673ffffffffffffffffffffffffffffffffffffffff16815260200191505060405180910390a150565b600a5481565b600e60009054906101000a900460ff1681565b61122b6115f8565b73ffffffffffffffffffffffffffffffffffffffff166000809054906101000a900473ffffffffffffffffffffffffffffffffffffffff1673ffffffffffffffffffffffffffffffffffffffff16146112ec576040517f08c379a00000000000000000000000000000000000000000000000000000000081526004018080602001828103825260208152602001807f4f776e61626c653a2063616c6c6572206973206e6f7420746865206f776e657281525060200191505060405180910390fd5b600073ffffffffffffffffffffffffffffffffffffffff168173ffffffffffffffffffffffffffffffffffffffff161415611372576040517f08c379a00000000000000000000000000000000000000000000000000000000081526004018080602001828103825260268152602001806117c36026913960400191505060405180910390fd5b8073ffffffffffffffffffffffffffffffffffffffff166000809054906101000a900473ffffffffffffffffffffffffffffffffffffffff1673ffffffffffffffffffffffffffffffffffffffff167f8be0079c531659141344cd1fd0a4f28419497f9722a3daafe3b4186f6b6457e060405160405180910390a3806000806101000a81548173ffffffffffffffffffffffffffffffffffffffff021916908373ffffffffffffffffffffffffffffffffffffffff16021790555050565b6114386115f8565b73ffffffffffffffffffffffffffffffffffffffff166000809054906101000a900473ffffffffffffffffffffffffffffffffffffffff1673ffffffffffffffffffffffffffffffffffffffff16146114f9576040517f08c379a00000000000000000000000000000000000000000000000000000000081526004018080602001828103825260208152602001807f4f776e61626c653a2063616c6c6572206973206e6f7420746865206f776e657281525060200191505060405180910390fd5b600034905061155081600160008573ffffffffffffffffffffffffffffffffffffffff1673ffffffffffffffffffffffffffffffffffffffff1681526020019081526020016000205461173a90919063ffffffff16565b600160008473ffffffffffffffffffffffffffffffffffffffff1673ffffffffffffffffffffffffffffffffffffffff168152602001908152602001600020819055508173ffffffffffffffffffffffffffffffffffffffff167f2da466a7b24304f47e87fa2e1e5a81b9831ce54fec19055ce277ca2f39ba42c4826040518082815260200191505060405180910390a25050565b600e60019054906101000a900460ff1681565b600033905090565b80471015611676576040517f08c379a000000000000000000000000000000000000000000000000000000000815260040180806020018281038252601d8152602001807f416464726573733a20696e73756666696369656e742062616c616e636500000081525060200191505060405180910390fd5b60008273ffffffffffffffffffffffffffffffffffffffff168260405180600001905060006040518083038185875af1925050503d80600081146116d6576040519150601f19603f3d011682016040523d82523d6000602084013e6116db565b606091505b5050905080611735576040517f08c379a000000000000000000000000000000000000000000000000000000000815260040180806020018281038252603a8152602001806117e9603a913960400191505060405180910390fd5b505050565b6000808284019050838110156117b8576040517f08c379a000000000000000000000000000000000000000000000000000000000815260040180806020018281038252601b8152602001807f536166654d6174683a206164646974696f6e206f766572666c6f77000000000081525060200191505060405180910390fd5b809150509291505056fe4f776e61626c653a206e6577206f776e657220697320746865207a65726f2061646472657373416464726573733a20756e61626c6520746f2073656e642076616c75652c20726563697069656e74206d61792068617665207265766572746564596f7520617265206e6f7420617574686f72697a656420746f2063616c6c20746869732066756e6374696f6e2ea2646970667358221220d5f3629c2de67c3c14cfebe2193a216d75b149b79f23dd942e9350438ceb060e64736f6c634300060b0033",
  "immutableReferences": {},
  "source": "pragma solidity ^0.6.0;\n\nimport \"./AuthenticityOracleInterface.sol\";\nimport \"./installed_contracts/zeppelin/contracts/payment/Escrow.sol\";\n\ncontract MadEscrow is Escrow {\n    string public name = \"Solidity MAD escrow contract\";\n\n    // Oracle parameters\n    AuthenticityOracleInterface private oracleInstance;\n    address private oracleAddress;\n    bool private authenticityCheck;\n    mapping(uint256=>bool) myRequests;\n\n    // Oracle events\n    event newOracleAddressEvent(address oracleAddress);\n    event ReceivedNewRequestIdEvent(uint256 id);\n    event AuthenticityCheckCompletedEvent(bool authenticityCheck, uint256 id);\n\n    // Escrow parameters\n    address public buyer;\n    address public seller;\n    uint public purchaseAmount = 0; //Total paid by BUYER\n\n    // Buyer required escrow funding (2x purchaseAmount)\n    uint public buyerRequiredEscrow = 0;\n    // Seller required escrow funding (1x purchaseAmount)\n    uint public sellerRequiredEscrow = 0;\n    // TOTAL required escrow funding (3x purchaseAmount)\n    uint public totalEscrowAmount = 0;\n\n    // Buyer escrow funding received\n    uint public buyerEscrowedFunds = 0;\n    // Seller escrow funding received\n    uint public sellerEscrowedFunds = 0;\n\n    // This will be true when the buyer has sent 2x the purchaseAmount\n    // and when buyerEscrowedFunds >= buyerRequiredEscrow\n    bool public buyerHasFunded = false;\n    // This will be true when the seller has sent 1x the purchaseAmount\n    // True when sellerEscrowedFunds >= sellerRequiredEscrow\n    bool public sellerHasFunded = false;\n\n    // True when both buyerHasFunded = true AND sellerHasFunded = true\n    bool public escrowFullyFunded = false;\n\n\n    // Once FullyFunded, both parties must finalize the trade/sale\n    bool public buyerfinalized = false;\n    bool public sellerfinalized = false;\n\n    // escrow events\n    event Terms(uint purchaseAmount, uint totalEscrowAmount, uint BuyerRequiredFunding, uint SellerRequiredFunding);\n    event Initiated(address initiator, address buyer, address seller, uint tradeFundsforXfer);\n    event FundsReceived(address sender, uint amount);\n    event PartyFinalized(address party);\n    event EscrowComplete(bool completed, uint buyerReceives, uint sellerReceives);\n\n    function setOracleAddress(address _oracleAddress) public onlyOwner {\n            oracleAddress = _oracleAddress;\n    }\n\n    function setOracleInstanceAddress (address _oracleInstanceAddress) public onlyOwner {\n        oracleAddress = _oracleInstanceAddress;\n        oracleInstance = AuthenticityOracleInterface(oracleAddress);\n        emit newOracleAddressEvent(oracleAddress);\n    }\n\n    function updateAuthenticityCheck() public {\n      uint256 id = oracleInstance.authenticityCheck();\n      myRequests[id] = true;\n      emit ReceivedNewRequestIdEvent(id);\n    }\n\n    function callback(bool _authenticityCheck, uint256 _id) public onlyOracle {\n      require(myRequests[_id], \"Request not in pending list.\");\n      authenticityCheck = _authenticityCheck;\n      delete myRequests[_id];\n      emit AuthenticityCheckCompletedEvent(_authenticityCheck, _id);\n    }\n\n    modifier onlyOracle() {\n     require(msg.sender == oracleAddress, \"You are not authorized to call this function.\");\n      _;\n    }\n\n\n//    function withdrawalAllowed(address payee) public view virtual returns (bool);\n//\n//    function withdraw(address payable payee) public virtual override {\n//        require(withdrawalAllowed(payee), \"ConditionalEscrow: payee is not allowed to withdraw\");\n//        super.withdraw(payee);\n//    }\n}",
  "sourcePath": "/home/bloodace/code/RobinD57/golang-marketplace/escrow_contracts/contracts/MadEscrow.sol",
  "compiler": {
    "name": "solc",
    "version": "0.6.11+commit.5ef660b1.Emscripten.clang"
  },
  "schemaVersion": "3.2.0",
  "updatedAt": "2020-07-09T10:06:09.593Z",
  "devdoc": {
    "kind": "dev",
    "methods": {
      "deposit(address)": {
        "details": "Stores the sent amount as credit to be withdrawn.",
        "params": {
          "payee": "The destination address of the funds."
        }
      },
      "owner()": {
        "details": "Returns the address of the current owner."
      },
      "renounceOwnership()": {
        "details": "Leaves the contract without owner. It will not be possible to call `onlyOwner` functions anymore. Can only be called by the current owner. NOTE: Renouncing ownership will leave the contract without an owner, thereby removing any functionality that is only available to the owner."
      },
      "transferOwnership(address)": {
        "details": "Transfers ownership of the contract to a new account (`newOwner`). Can only be called by the current owner."
      },
      "withdraw(address)": {
        "details": "Withdraw accumulated balance for a payee, forwarding all gas to the recipient. WARNING: Forwarding all gas opens the door to reentrancy vulnerabilities. Make sure you trust the recipient, or are either following the checks-effects-interactions pattern or using {ReentrancyGuard}.",
        "params": {
          "payee": "The address whose funds will be withdrawn and transferred to."
        }
      }
    },
    "version": 1
  },
  "userdoc": {
    "kind": "user",
    "methods": {},
    "version": 1
  }
}